{
  "contractName": "MyNFT",
  "abi": [
    {
      "inputs": [],
      "stateMutability": "nonpayable",
      "type": "constructor"
    },
    {
      "anonymous": false,
      "inputs": [
        {
          "indexed": true,
          "internalType": "address",
          "name": "owner",
          "type": "address"
        },
        {
          "indexed": true,
          "internalType": "address",
          "name": "approved",
          "type": "address"
        },
        {
          "indexed": true,
          "internalType": "uint256",
          "name": "tokenId",
          "type": "uint256"
        }
      ],
      "name": "Approval",
      "type": "event"
    },
    {
      "anonymous": false,
      "inputs": [
        {
          "indexed": true,
          "internalType": "address",
          "name": "owner",
          "type": "address"
        },
        {
          "indexed": true,
          "internalType": "address",
          "name": "operator",
          "type": "address"
        },
        {
          "indexed": false,
          "internalType": "bool",
          "name": "approved",
          "type": "bool"
        }
      ],
      "name": "ApprovalForAll",
      "type": "event"
    },
    {
      "anonymous": false,
      "inputs": [
        {
          "indexed": false,
          "internalType": "address",
          "name": "account",
          "type": "address"
        }
      ],
      "name": "Paused",
      "type": "event"
    },
    {
      "anonymous": false,
      "inputs": [
        {
          "indexed": true,
          "internalType": "address",
          "name": "from",
          "type": "address"
        },
        {
          "indexed": true,
          "internalType": "address",
          "name": "to",
          "type": "address"
        },
        {
          "indexed": true,
          "internalType": "uint256",
          "name": "tokenId",
          "type": "uint256"
        }
      ],
      "name": "Transfer",
      "type": "event"
    },
    {
      "anonymous": false,
      "inputs": [
        {
          "indexed": false,
          "internalType": "address",
          "name": "account",
          "type": "address"
        }
      ],
      "name": "Unpaused",
      "type": "event"
    },
    {
      "inputs": [
        {
          "internalType": "address",
          "name": "to",
          "type": "address"
        },
        {
          "internalType": "uint256",
          "name": "tokenId",
          "type": "uint256"
        }
      ],
      "name": "approve",
      "outputs": [],
      "stateMutability": "nonpayable",
      "type": "function"
    },
    {
      "inputs": [
        {
          "internalType": "address",
          "name": "owner",
          "type": "address"
        }
      ],
      "name": "balanceOf",
      "outputs": [
        {
          "internalType": "uint256",
          "name": "",
          "type": "uint256"
        }
      ],
      "stateMutability": "view",
      "type": "function"
    },
    {
      "inputs": [
        {
          "internalType": "uint256",
          "name": "tokenId",
          "type": "uint256"
        }
      ],
      "name": "getApproved",
      "outputs": [
        {
          "internalType": "address",
          "name": "",
          "type": "address"
        }
      ],
      "stateMutability": "view",
      "type": "function"
    },
    {
      "inputs": [
        {
          "internalType": "address",
          "name": "owner",
          "type": "address"
        },
        {
          "internalType": "address",
          "name": "operator",
          "type": "address"
        }
      ],
      "name": "isApprovedForAll",
      "outputs": [
        {
          "internalType": "bool",
          "name": "",
          "type": "bool"
        }
      ],
      "stateMutability": "view",
      "type": "function"
    },
    {
      "inputs": [],
      "name": "name",
      "outputs": [
        {
          "internalType": "string",
          "name": "",
          "type": "string"
        }
      ],
      "stateMutability": "view",
      "type": "function"
    },
    {
      "inputs": [
        {
          "internalType": "uint256",
          "name": "tokenId",
          "type": "uint256"
        }
      ],
      "name": "ownerOf",
      "outputs": [
        {
          "internalType": "address",
          "name": "",
          "type": "address"
        }
      ],
      "stateMutability": "view",
      "type": "function"
    },
    {
      "inputs": [],
      "name": "paused",
      "outputs": [
        {
          "internalType": "bool",
          "name": "",
          "type": "bool"
        }
      ],
      "stateMutability": "view",
      "type": "function"
    },
    {
      "inputs": [
        {
          "internalType": "address",
          "name": "from",
          "type": "address"
        },
        {
          "internalType": "address",
          "name": "to",
          "type": "address"
        },
        {
          "internalType": "uint256",
          "name": "tokenId",
          "type": "uint256"
        }
      ],
      "name": "safeTransferFrom",
      "outputs": [],
      "stateMutability": "nonpayable",
      "type": "function"
    },
    {
      "inputs": [
        {
          "internalType": "address",
          "name": "from",
          "type": "address"
        },
        {
          "internalType": "address",
          "name": "to",
          "type": "address"
        },
        {
          "internalType": "uint256",
          "name": "tokenId",
          "type": "uint256"
        },
        {
          "internalType": "bytes",
          "name": "_data",
          "type": "bytes"
        }
      ],
      "name": "safeTransferFrom",
      "outputs": [],
      "stateMutability": "nonpayable",
      "type": "function"
    },
    {
      "inputs": [
        {
          "internalType": "address",
          "name": "operator",
          "type": "address"
        },
        {
          "internalType": "bool",
          "name": "approved",
          "type": "bool"
        }
      ],
      "name": "setApprovalForAll",
      "outputs": [],
      "stateMutability": "nonpayable",
      "type": "function"
    },
    {
      "inputs": [
        {
          "internalType": "bytes4",
          "name": "interfaceId",
          "type": "bytes4"
        }
      ],
      "name": "supportsInterface",
      "outputs": [
        {
          "internalType": "bool",
          "name": "",
          "type": "bool"
        }
      ],
      "stateMutability": "view",
      "type": "function"
    },
    {
      "inputs": [],
      "name": "symbol",
      "outputs": [
        {
          "internalType": "string",
          "name": "",
          "type": "string"
        }
      ],
      "stateMutability": "view",
      "type": "function"
    },
    {
      "inputs": [
        {
          "internalType": "uint256",
          "name": "tokenId",
          "type": "uint256"
        }
      ],
      "name": "tokenURI",
      "outputs": [
        {
          "internalType": "string",
          "name": "",
          "type": "string"
        }
      ],
      "stateMutability": "view",
      "type": "function"
    },
    {
      "inputs": [
        {
          "internalType": "address",
          "name": "from",
          "type": "address"
        },
        {
          "internalType": "address",
          "name": "to",
          "type": "address"
        },
        {
          "internalType": "uint256",
          "name": "tokenId",
          "type": "uint256"
        }
      ],
      "name": "transferFrom",
      "outputs": [],
      "stateMutability": "nonpayable",
      "type": "function"
    },
    {
      "inputs": [
        {
          "internalType": "string",
          "name": "tokenURI",
          "type": "string"
        },
        {
          "internalType": "uint256",
          "name": "price",
          "type": "uint256"
        }
      ],
      "name": "sellNFT",
      "outputs": [],
      "stateMutability": "nonpayable",
      "type": "function"
    },
    {
      "inputs": [
        {
          "internalType": "uint256",
          "name": "TokenId",
          "type": "uint256"
        }
      ],
      "name": "buyNFT",
      "outputs": [],
      "stateMutability": "payable",
      "type": "function"
    },
    {
      "inputs": [],
      "name": "getNFTS",
      "outputs": [
        {
          "components": [
            {
              "internalType": "uint256",
              "name": "nftID",
              "type": "uint256"
            },
            {
              "internalType": "string",
              "name": "nftURI",
              "type": "string"
            },
            {
              "internalType": "address",
              "name": "nftCreater",
              "type": "address"
            },
            {
              "internalType": "address",
              "name": "nftOwner",
              "type": "address"
            },
            {
              "internalType": "uint256",
              "name": "nftPrice",
              "type": "uint256"
            },
            {
              "internalType": "bool",
              "name": "nftStatus",
              "type": "bool"
            }
          ],
          "internalType": "struct MyNFT.PropertyNFT[]",
          "name": "",
          "type": "tuple[]"
        }
      ],
      "stateMutability": "view",
      "type": "function"
    },
    {
      "inputs": [],
      "name": "pause",
      "outputs": [],
      "stateMutability": "nonpayable",
      "type": "function"
    },
    {
      "inputs": [],
      "name": "unpause",
      "outputs": [],
      "stateMutability": "nonpayable",
      "type": "function"
    }
  ],
  "bytecode": "0x60806040523480156200001157600080fd5b506040518060400160405280600b81526020017f5265616c204573746174650000000000000000000000000000000000000000008152506040518060400160405280600481526020017f524c53540000000000000000000000000000000000000000000000000000000081525081600090805190602001906200009692919062000114565b508060019080519060200190620000af92919062000114565b5050506000600760006101000a81548160ff02191690831515021790555033600960006101000a81548173ffffffffffffffffffffffffffffffffffffffff021916908373ffffffffffffffffffffffffffffffffffffffff16021790555062000229565b8280546200012290620001f3565b90600052602060002090601f01602090048101928262000146576000855562000192565b82601f106200016157805160ff191683800117855562000192565b8280016001018555821562000192579182015b828111156200019157825182559160200191906001019062000174565b5b509050620001a19190620001a5565b5090565b5b80821115620001c0576000816000905550600101620001a6565b5090565b7f4e487b7100000000000000000000000000000000000000000000000000000000600052602260045260246000fd5b600060028204905060018216806200020c57607f821691505b60208210811415620002235762000222620001c4565b5b50919050565b61401380620002396000396000f3fe6080604052600436106101145760003560e01c80636352211e116100a0578063a22cb46511610064578063a22cb4651461037e578063b88d4fde146103a7578063c20ed385146103d0578063c87b56dd146103f9578063e985e9c51461043657610114565b80636352211e1461029757806367a23596146102d457806370a08231146102ff5780638456cb591461033c57806395d89b411461035357610114565b806323b872dd116100e757806323b872dd146101e75780633f4ba83a1461021057806342842e0e1461022757806351ed8288146102505780635c975abb1461026c57610114565b806301ffc9a71461011957806306fdde0314610156578063081812fc14610181578063095ea7b3146101be575b600080fd5b34801561012557600080fd5b50610140600480360381019061013b919061279f565b610473565b60405161014d91906127e7565b60405180910390f35b34801561016257600080fd5b5061016b610555565b604051610178919061289b565b60405180910390f35b34801561018d57600080fd5b506101a860048036038101906101a391906128f3565b6105e7565b6040516101b59190612961565b60405180910390f35b3480156101ca57600080fd5b506101e560048036038101906101e091906129a8565b61066c565b005b3480156101f357600080fd5b5061020e600480360381019061020991906129e8565b610784565b005b34801561021c57600080fd5b506102256107e4565b005b34801561023357600080fd5b5061024e600480360381019061024991906129e8565b61087e565b005b61026a600480360381019061026591906128f3565b61089e565b005b34801561027857600080fd5b50610281610d2a565b60405161028e91906127e7565b60405180910390f35b3480156102a357600080fd5b506102be60048036038101906102b991906128f3565b610d41565b6040516102cb9190612961565b60405180910390f35b3480156102e057600080fd5b506102e9610df3565b6040516102f69190612bfd565b60405180910390f35b34801561030b57600080fd5b5061032660048036038101906103219190612c1f565b610fbf565b6040516103339190612c5b565b60405180910390f35b34801561034857600080fd5b50610351611077565b005b34801561035f57600080fd5b50610368611111565b604051610375919061289b565b60405180910390f35b34801561038a57600080fd5b506103a560048036038101906103a09190612ca2565b6111a3565b005b3480156103b357600080fd5b506103ce60048036038101906103c99190612e17565b611324565b005b3480156103dc57600080fd5b506103f760048036038101906103f29190612f3b565b611386565b005b34801561040557600080fd5b50610420600480360381019061041b91906128f3565b6115f8565b60405161042d919061289b565b60405180910390f35b34801561044257600080fd5b5061045d60048036038101906104589190612f97565b61174a565b60405161046a91906127e7565b60405180910390f35b60007f80ac58cd000000000000000000000000000000000000000000000000000000007bffffffffffffffffffffffffffffffffffffffffffffffffffffffff1916827bffffffffffffffffffffffffffffffffffffffffffffffffffffffff1916148061053e57507f5b5e139f000000000000000000000000000000000000000000000000000000007bffffffffffffffffffffffffffffffffffffffffffffffffffffffff1916827bffffffffffffffffffffffffffffffffffffffffffffffffffffffff1916145b8061054e575061054d826117de565b5b9050919050565b60606000805461056490613006565b80601f016020809104026020016040519081016040528092919081815260200182805461059090613006565b80156105dd5780601f106105b2576101008083540402835291602001916105dd565b820191906000526020600020905b8154815290600101906020018083116105c057829003601f168201915b5050505050905090565b60006105f282611848565b610631576040517f08c379a0000000000000000000000000000000000000000000000000000000008152600401610628906130aa565b60405180910390fd5b6004600083815260200190815260200160002060009054906101000a900473ffffffffffffffffffffffffffffffffffffffff169050919050565b600061067782610d41565b90508073ffffffffffffffffffffffffffffffffffffffff168373ffffffffffffffffffffffffffffffffffffffff1614156106e8576040517f08c379a00000000000000000000000000000000000000000000000000000000081526004016106df9061313c565b60405180910390fd5b8073ffffffffffffffffffffffffffffffffffffffff166107076118b4565b73ffffffffffffffffffffffffffffffffffffffff1614806107365750610735816107306118b4565b61174a565b5b610775576040517f08c379a000000000000000000000000000000000000000000000000000000000815260040161076c906131ce565b60405180910390fd5b61077f83836118bc565b505050565b61079561078f6118b4565b82611975565b6107d4576040517f08c379a00000000000000000000000000000000000000000000000000000000081526004016107cb90613260565b60405180910390fd5b6107df838383611a53565b505050565b600960009054906101000a900473ffffffffffffffffffffffffffffffffffffffff1673ffffffffffffffffffffffffffffffffffffffff163373ffffffffffffffffffffffffffffffffffffffff1614610874576040517f08c379a000000000000000000000000000000000000000000000000000000000815260040161086b906132f2565b60405180910390fd5b61087c611caf565b565b61089983838360405180602001604052806000815250611324565b505050565b6108a6610d2a565b156108e6576040517f08c379a00000000000000000000000000000000000000000000000000000000081526004016108dd9061335e565b60405180910390fd5b600960009054906101000a900473ffffffffffffffffffffffffffffffffffffffff1673ffffffffffffffffffffffffffffffffffffffff163373ffffffffffffffffffffffffffffffffffffffff161415610977576040517f08c379a000000000000000000000000000000000000000000000000000000000815260040161096e906133ca565b60405180910390fd5b61098081611848565b6109bf576040517f08c379a00000000000000000000000000000000000000000000000000000000081526004016109b690613436565b60405180910390fd5b600a6001826109ce9190613485565b815481106109df576109de6134b9565b5b906000526020600020906006020160030160009054906101000a900473ffffffffffffffffffffffffffffffffffffffff1673ffffffffffffffffffffffffffffffffffffffff163373ffffffffffffffffffffffffffffffffffffffff161415610a7f576040517f08c379a0000000000000000000000000000000000000000000000000000000008152600401610a7690613534565b60405180910390fd5b60001515600a600183610a929190613485565b81548110610aa357610aa26134b9565b5b906000526020600020906006020160050160009054906101000a900460ff16151514610b04576040517f08c379a0000000000000000000000000000000000000000000000000000000008152600401610afb906135a0565b60405180910390fd5b600a600182610b139190613485565b81548110610b2457610b236134b9565b5b906000526020600020906006020160040154341015610b78576040517f08c379a0000000000000000000000000000000000000000000000000000000008152600401610b6f9061360c565b60405180910390fd5b3373ffffffffffffffffffffffffffffffffffffffff166108fc600a600184610ba19190613485565b81548110610bb257610bb16134b9565b5b90600052602060002090600602016004015434610bcf9190613485565b9081150290604051600060405180830381858888f19350505050158015610bfa573d6000803e3d6000fd5b506000610c0682610d41565b90508073ffffffffffffffffffffffffffffffffffffffff166108fc600a600185610c319190613485565b81548110610c4257610c416134b9565b5b9060005260206000209060060201600401549081150290604051600060405180830381858888f19350505050158015610c7f573d6000803e3d6000fd5b50610c8b813384611a53565b6000600a600184610c9c9190613485565b81548110610cad57610cac6134b9565b5b90600052602060002090600602019050338160030160006101000a81548173ffffffffffffffffffffffffffffffffffffffff021916908373ffffffffffffffffffffffffffffffffffffffff16021790555060018160050160006101000a81548160ff021916908315150217905550610d25611d51565b505050565b6000600760009054906101000a900460ff16905090565b6000806002600084815260200190815260200160002060009054906101000a900473ffffffffffffffffffffffffffffffffffffffff169050600073ffffffffffffffffffffffffffffffffffffffff168173ffffffffffffffffffffffffffffffffffffffff161415610dea576040517f08c379a0000000000000000000000000000000000000000000000000000000008152600401610de19061369e565b60405180910390fd5b80915050919050565b6060600a805480602002602001604051908101604052809291908181526020016000905b82821015610fb657838290600052602060002090600602016040518060c001604052908160008201548152602001600182018054610e5490613006565b80601f0160208091040260200160405190810160405280929190818152602001828054610e8090613006565b8015610ecd5780601f10610ea257610100808354040283529160200191610ecd565b820191906000526020600020905b815481529060010190602001808311610eb057829003601f168201915b505050505081526020016002820160009054906101000a900473ffffffffffffffffffffffffffffffffffffffff1673ffffffffffffffffffffffffffffffffffffffff1673ffffffffffffffffffffffffffffffffffffffff1681526020016003820160009054906101000a900473ffffffffffffffffffffffffffffffffffffffff1673ffffffffffffffffffffffffffffffffffffffff1673ffffffffffffffffffffffffffffffffffffffff168152602001600482015481526020016005820160009054906101000a900460ff16151515158152505081526020019060010190610e17565b50505050905090565b60008073ffffffffffffffffffffffffffffffffffffffff168273ffffffffffffffffffffffffffffffffffffffff161415611030576040517f08c379a000000000000000000000000000000000000000000000000000000000815260040161102790613730565b60405180910390fd5b600360008373ffffffffffffffffffffffffffffffffffffffff1673ffffffffffffffffffffffffffffffffffffffff168152602001908152602001600020549050919050565b600960009054906101000a900473ffffffffffffffffffffffffffffffffffffffff1673ffffffffffffffffffffffffffffffffffffffff163373ffffffffffffffffffffffffffffffffffffffff1614611107576040517f08c379a00000000000000000000000000000000000000000000000000000000081526004016110fe906132f2565b60405180910390fd5b61110f611de7565b565b60606001805461112090613006565b80601f016020809104026020016040519081016040528092919081815260200182805461114c90613006565b80156111995780601f1061116e57610100808354040283529160200191611199565b820191906000526020600020905b81548152906001019060200180831161117c57829003601f168201915b5050505050905090565b6111ab6118b4565b73ffffffffffffffffffffffffffffffffffffffff168273ffffffffffffffffffffffffffffffffffffffff161415611219576040517f08c379a00000000000000000000000000000000000000000000000000000000081526004016112109061379c565b60405180910390fd5b80600560006112266118b4565b73ffffffffffffffffffffffffffffffffffffffff1673ffffffffffffffffffffffffffffffffffffffff16815260200190815260200160002060008473ffffffffffffffffffffffffffffffffffffffff1673ffffffffffffffffffffffffffffffffffffffff16815260200190815260200160002060006101000a81548160ff0219169083151502179055508173ffffffffffffffffffffffffffffffffffffffff166112d36118b4565b73ffffffffffffffffffffffffffffffffffffffff167f17307eab39ab6107e8899845ad3d59bd9653f200f220920489ca2b5937696c318360405161131891906127e7565b60405180910390a35050565b61133561132f6118b4565b83611975565b611374576040517f08c379a000000000000000000000000000000000000000000000000000000000815260040161136b90613260565b60405180910390fd5b61138084848484611e8a565b50505050565b61138e610d2a565b156113ce576040517f08c379a00000000000000000000000000000000000000000000000000000000081526004016113c59061335e565b60405180910390fd5b600960009054906101000a900473ffffffffffffffffffffffffffffffffffffffff1673ffffffffffffffffffffffffffffffffffffffff163373ffffffffffffffffffffffffffffffffffffffff16141561145f576040517f08c379a000000000000000000000000000000000000000000000000000000000815260040161145690613808565b60405180910390fd5b6114696008611ee6565b60006114756008611efc565b90506114813382611f0a565b61148b8184611f28565b600a6040518060c001604052808381526020018581526020013373ffffffffffffffffffffffffffffffffffffffff1681526020013373ffffffffffffffffffffffffffffffffffffffff168152602001848152602001600015158152509080600181540180825580915050600190039060005260206000209060060201600090919091909150600082015181600001556020820151816001019080519060200190611538929190612593565b5060408201518160020160006101000a81548173ffffffffffffffffffffffffffffffffffffffff021916908373ffffffffffffffffffffffffffffffffffffffff16021790555060608201518160030160006101000a81548173ffffffffffffffffffffffffffffffffffffffff021916908373ffffffffffffffffffffffffffffffffffffffff1602179055506080820151816004015560a08201518160050160006101000a81548160ff0219169083151502179055505050505050565b606061160382611848565b611642576040517f08c379a00000000000000000000000000000000000000000000000000000000081526004016116399061389a565b60405180910390fd5b600060066000848152602001908152602001600020805461166290613006565b80601f016020809104026020016040519081016040528092919081815260200182805461168e90613006565b80156116db5780601f106116b0576101008083540402835291602001916116db565b820191906000526020600020905b8154815290600101906020018083116116be57829003601f168201915b5050505050905060006116ec611f9c565b9050600081511415611702578192505050611745565b60008251111561173757808260405160200161171f9291906138f6565b60405160208183030381529060405292505050611745565b61174084611fb3565b925050505b919050565b6000600560008473ffffffffffffffffffffffffffffffffffffffff1673ffffffffffffffffffffffffffffffffffffffff16815260200190815260200160002060008373ffffffffffffffffffffffffffffffffffffffff1673ffffffffffffffffffffffffffffffffffffffff16815260200190815260200160002060009054906101000a900460ff16905092915050565b60007f01ffc9a7000000000000000000000000000000000000000000000000000000007bffffffffffffffffffffffffffffffffffffffffffffffffffffffff1916827bffffffffffffffffffffffffffffffffffffffffffffffffffffffff1916149050919050565b60008073ffffffffffffffffffffffffffffffffffffffff166002600084815260200190815260200160002060009054906101000a900473ffffffffffffffffffffffffffffffffffffffff1673ffffffffffffffffffffffffffffffffffffffff1614159050919050565b600033905090565b816004600083815260200190815260200160002060006101000a81548173ffffffffffffffffffffffffffffffffffffffff021916908373ffffffffffffffffffffffffffffffffffffffff160217905550808273ffffffffffffffffffffffffffffffffffffffff1661192f83610d41565b73ffffffffffffffffffffffffffffffffffffffff167f8c5be1e5ebec7d5bd14f71427d1e84f3dd0314c0f7b2291e5b200ac8c7c3b92560405160405180910390a45050565b600061198082611848565b6119bf576040517f08c379a00000000000000000000000000000000000000000000000000000000081526004016119b69061398c565b60405180910390fd5b60006119ca83610d41565b90508073ffffffffffffffffffffffffffffffffffffffff168473ffffffffffffffffffffffffffffffffffffffff161480611a3957508373ffffffffffffffffffffffffffffffffffffffff16611a21846105e7565b73ffffffffffffffffffffffffffffffffffffffff16145b80611a4a5750611a49818561174a565b5b91505092915050565b8273ffffffffffffffffffffffffffffffffffffffff16611a7382610d41565b73ffffffffffffffffffffffffffffffffffffffff1614611ac9576040517f08c379a0000000000000000000000000000000000000000000000000000000008152600401611ac090613a1e565b60405180910390fd5b600073ffffffffffffffffffffffffffffffffffffffff168273ffffffffffffffffffffffffffffffffffffffff161415611b39576040517f08c379a0000000000000000000000000000000000000000000000000000000008152600401611b3090613ab0565b60405180910390fd5b611b4483838361205a565b611b4f6000826118bc565b6001600360008573ffffffffffffffffffffffffffffffffffffffff1673ffffffffffffffffffffffffffffffffffffffff1681526020019081526020016000206000828254611b9f9190613485565b925050819055506001600360008473ffffffffffffffffffffffffffffffffffffffff1673ffffffffffffffffffffffffffffffffffffffff1681526020019081526020016000206000828254611bf69190613ad0565b92505081905550816002600083815260200190815260200160002060006101000a81548173ffffffffffffffffffffffffffffffffffffffff021916908373ffffffffffffffffffffffffffffffffffffffff160217905550808273ffffffffffffffffffffffffffffffffffffffff168473ffffffffffffffffffffffffffffffffffffffff167fddf252ad1be2c89b69c2b068fc378daa952ba7f163c4a11628f55a4df523b3ef60405160405180910390a4505050565b611cb7610d2a565b611cf6576040517f08c379a0000000000000000000000000000000000000000000000000000000008152600401611ced90613b72565b60405180910390fd5b6000600760006101000a81548160ff0219169083151502179055507f5db9ee0a495bf2e6ff9c91a7834c1ba4fdd244a5e8aa4e537bd38aeae4b073aa611d3a6118b4565b604051611d479190612961565b60405180910390a1565b600080600090505b600a80549050811015611dc75760011515600a8281548110611d7e57611d7d6134b9565b5b906000526020600020906006020160050160009054906101000a900460ff1615151415611db4578180611db090613b92565b9250505b8080611dbf90613b92565b915050611d59565b50600a80549050811415611de457600a6000611de39190612619565b5b50565b611def610d2a565b15611e2f576040517f08c379a0000000000000000000000000000000000000000000000000000000008152600401611e269061335e565b60405180910390fd5b6001600760006101000a81548160ff0219169083151502179055507f62e78cea01bee320cd4e420270b5ea74000d11b0c9f74754ebdbfc544b05a258611e736118b4565b604051611e809190612961565b60405180910390a1565b611e95848484611a53565b611ea18484848461205f565b611ee0576040517f08c379a0000000000000000000000000000000000000000000000000000000008152600401611ed790613c4d565b60405180910390fd5b50505050565b6001816000016000828254019250508190555050565b600081600001549050919050565b611f248282604051806020016040528060008152506121f6565b5050565b611f3182611848565b611f70576040517f08c379a0000000000000000000000000000000000000000000000000000000008152600401611f6790613cdf565b60405180910390fd5b80600660008481526020019081526020016000209080519060200190611f97929190612593565b505050565b606060405180602001604052806000815250905090565b6060611fbe82611848565b611ffd576040517f08c379a0000000000000000000000000000000000000000000000000000000008152600401611ff490613d71565b60405180910390fd5b6000612007611f9c565b905060008151116120275760405180602001604052806000815250612052565b8061203184612251565b6040516020016120429291906138f6565b6040516020818303038152906040525b915050919050565b505050565b60006120808473ffffffffffffffffffffffffffffffffffffffff166123b2565b156121e9578373ffffffffffffffffffffffffffffffffffffffff1663150b7a026120a96118b4565b8786866040518563ffffffff1660e01b81526004016120cb9493929190613de6565b602060405180830381600087803b1580156120e557600080fd5b505af192505050801561211657506040513d601f19601f820116820180604052508101906121139190613e47565b60015b612199573d8060008114612146576040519150601f19603f3d011682016040523d82523d6000602084013e61214b565b606091505b50600081511415612191576040517f08c379a000000000000000000000000000000000000000000000000000000000815260040161218890613c4d565b60405180910390fd5b805181602001fd5b63150b7a0260e01b7bffffffffffffffffffffffffffffffffffffffffffffffffffffffff1916817bffffffffffffffffffffffffffffffffffffffffffffffffffffffff1916149150506121ee565b600190505b949350505050565b61220083836123c5565b61220d600084848461205f565b61224c576040517f08c379a000000000000000000000000000000000000000000000000000000000815260040161224390613c4d565b60405180910390fd5b505050565b60606000821415612299576040518060400160405280600181526020017f300000000000000000000000000000000000000000000000000000000000000081525090506123ad565b600082905060005b600082146122cb5780806122b490613b92565b915050600a826122c49190613ea3565b91506122a1565b60008167ffffffffffffffff8111156122e7576122e6612cec565b5b6040519080825280601f01601f1916602001820160405280156123195781602001600182028036833780820191505090505b5090505b600085146123a6576001826123329190613485565b9150600a856123419190613ed4565b603061234d9190613ad0565b60f81b818381518110612363576123626134b9565b5b60200101907effffffffffffffffffffffffffffffffffffffffffffffffffffffffffffff1916908160001a905350600a8561239f9190613ea3565b945061231d565b8093505050505b919050565b600080823b905060008111915050919050565b600073ffffffffffffffffffffffffffffffffffffffff168273ffffffffffffffffffffffffffffffffffffffff161415612435576040517f08c379a000000000000000000000000000000000000000000000000000000000815260040161242c90613f51565b60405180910390fd5b61243e81611848565b1561247e576040517f08c379a000000000000000000000000000000000000000000000000000000000815260040161247590613fbd565b60405180910390fd5b61248a6000838361205a565b6001600360008473ffffffffffffffffffffffffffffffffffffffff1673ffffffffffffffffffffffffffffffffffffffff16815260200190815260200160002060008282546124da9190613ad0565b92505081905550816002600083815260200190815260200160002060006101000a81548173ffffffffffffffffffffffffffffffffffffffff021916908373ffffffffffffffffffffffffffffffffffffffff160217905550808273ffffffffffffffffffffffffffffffffffffffff16600073ffffffffffffffffffffffffffffffffffffffff167fddf252ad1be2c89b69c2b068fc378daa952ba7f163c4a11628f55a4df523b3ef60405160405180910390a45050565b82805461259f90613006565b90600052602060002090601f0160209004810192826125c15760008555612608565b82601f106125da57805160ff1916838001178555612608565b82800160010185558215612608579182015b828111156126075782518255916020019190600101906125ec565b5b509050612615919061263d565b5090565b508054600082556006029060005260206000209081019061263a919061265a565b50565b5b8082111561265657600081600090555060010161263e565b5090565b5b808211156126ef5760008082016000905560018201600061267c91906126f3565b6002820160006101000a81549073ffffffffffffffffffffffffffffffffffffffff02191690556003820160006101000a81549073ffffffffffffffffffffffffffffffffffffffff021916905560048201600090556005820160006101000a81549060ff02191690555060060161265b565b5090565b5080546126ff90613006565b6000825580601f106127115750612730565b601f01602090049060005260206000209081019061272f919061263d565b5b50565b6000604051905090565b600080fd5b600080fd5b60007fffffffff0000000000000000000000000000000000000000000000000000000082169050919050565b61277c81612747565b811461278757600080fd5b50565b60008135905061279981612773565b92915050565b6000602082840312156127b5576127b461273d565b5b60006127c38482850161278a565b91505092915050565b60008115159050919050565b6127e1816127cc565b82525050565b60006020820190506127fc60008301846127d8565b92915050565b600081519050919050565b600082825260208201905092915050565b60005b8381101561283c578082015181840152602081019050612821565b8381111561284b576000848401525b50505050565b6000601f19601f8301169050919050565b600061286d82612802565b612877818561280d565b935061288781856020860161281e565b61289081612851565b840191505092915050565b600060208201905081810360008301526128b58184612862565b905092915050565b6000819050919050565b6128d0816128bd565b81146128db57600080fd5b50565b6000813590506128ed816128c7565b92915050565b6000602082840312156129095761290861273d565b5b6000612917848285016128de565b91505092915050565b600073ffffffffffffffffffffffffffffffffffffffff82169050919050565b600061294b82612920565b9050919050565b61295b81612940565b82525050565b60006020820190506129766000830184612952565b92915050565b61298581612940565b811461299057600080fd5b50565b6000813590506129a28161297c565b92915050565b600080604083850312156129bf576129be61273d565b5b60006129cd85828601612993565b92505060206129de858286016128de565b9150509250929050565b600080600060608486031215612a0157612a0061273d565b5b6000612a0f86828701612993565b9350506020612a2086828701612993565b9250506040612a31868287016128de565b9150509250925092565b600081519050919050565b600082825260208201905092915050565b6000819050602082019050919050565b612a70816128bd565b82525050565b600082825260208201905092915050565b6000612a9282612802565b612a9c8185612a76565b9350612aac81856020860161281e565b612ab581612851565b840191505092915050565b612ac981612940565b82525050565b612ad8816127cc565b82525050565b600060c083016000830151612af66000860182612a67565b5060208301518482036020860152612b0e8282612a87565b9150506040830151612b236040860182612ac0565b506060830151612b366060860182612ac0565b506080830151612b496080860182612a67565b5060a0830151612b5c60a0860182612acf565b508091505092915050565b6000612b738383612ade565b905092915050565b6000602082019050919050565b6000612b9382612a3b565b612b9d8185612a46565b935083602082028501612baf85612a57565b8060005b85811015612beb5784840389528151612bcc8582612b67565b9450612bd783612b7b565b925060208a01995050600181019050612bb3565b50829750879550505050505092915050565b60006020820190508181036000830152612c178184612b88565b905092915050565b600060208284031215612c3557612c3461273d565b5b6000612c4384828501612993565b91505092915050565b612c55816128bd565b82525050565b6000602082019050612c706000830184612c4c565b92915050565b612c7f816127cc565b8114612c8a57600080fd5b50565b600081359050612c9c81612c76565b92915050565b60008060408385031215612cb957612cb861273d565b5b6000612cc785828601612993565b9250506020612cd885828601612c8d565b9150509250929050565b600080fd5b600080fd5b7f4e487b7100000000000000000000000000000000000000000000000000000000600052604160045260246000fd5b612d2482612851565b810181811067ffffffffffffffff82111715612d4357612d42612cec565b5b80604052505050565b6000612d56612733565b9050612d628282612d1b565b919050565b600067ffffffffffffffff821115612d8257612d81612cec565b5b612d8b82612851565b9050602081019050919050565b82818337600083830152505050565b6000612dba612db584612d67565b612d4c565b905082815260208101848484011115612dd657612dd5612ce7565b5b612de1848285612d98565b509392505050565b600082601f830112612dfe57612dfd612ce2565b5b8135612e0e848260208601612da7565b91505092915050565b60008060008060808587031215612e3157612e3061273d565b5b6000612e3f87828801612993565b9450506020612e5087828801612993565b9350506040612e61878288016128de565b925050606085013567ffffffffffffffff811115612e8257612e81612742565b5b612e8e87828801612de9565b91505092959194509250565b600067ffffffffffffffff821115612eb557612eb4612cec565b5b612ebe82612851565b9050602081019050919050565b6000612ede612ed984612e9a565b612d4c565b905082815260208101848484011115612efa57612ef9612ce7565b5b612f05848285612d98565b509392505050565b600082601f830112612f2257612f21612ce2565b5b8135612f32848260208601612ecb565b91505092915050565b60008060408385031215612f5257612f5161273d565b5b600083013567ffffffffffffffff811115612f7057612f6f612742565b5b612f7c85828601612f0d565b9250506020612f8d858286016128de565b9150509250929050565b60008060408385031215612fae57612fad61273d565b5b6000612fbc85828601612993565b9250506020612fcd85828601612993565b9150509250929050565b7f4e487b7100000000000000000000000000000000000000000000000000000000600052602260045260246000fd5b6000600282049050600182168061301e57607f821691505b6020821081141561303257613031612fd7565b5b50919050565b7f4552433732313a20617070726f76656420717565727920666f72206e6f6e657860008201527f697374656e7420746f6b656e0000000000000000000000000000000000000000602082015250565b6000613094602c8361280d565b915061309f82613038565b604082019050919050565b600060208201905081810360008301526130c381613087565b9050919050565b7f4552433732313a20617070726f76616c20746f2063757272656e74206f776e6560008201527f7200000000000000000000000000000000000000000000000000000000000000602082015250565b600061312660218361280d565b9150613131826130ca565b604082019050919050565b6000602082019050818103600083015261315581613119565b9050919050565b7f4552433732313a20617070726f76652063616c6c6572206973206e6f74206f7760008201527f6e6572206e6f7220617070726f76656420666f7220616c6c0000000000000000602082015250565b60006131b860388361280d565b91506131c38261315c565b604082019050919050565b600060208201905081810360008301526131e7816131ab565b9050919050565b7f4552433732313a207472616e736665722063616c6c6572206973206e6f74206f60008201527f776e6572206e6f7220617070726f766564000000000000000000000000000000602082015250565b600061324a60318361280d565b9150613255826131ee565b604082019050919050565b600060208201905081810360008301526132798161323d565b9050919050565b7f4f6e6c7920746865206d616e616765722063616e20706175736520746865204e60008201527f4654204d61726b65742100000000000000000000000000000000000000000000602082015250565b60006132dc602a8361280d565b91506132e782613280565b604082019050919050565b6000602082019050818103600083015261330b816132cf565b9050919050565b7f5061757361626c653a2070617573656400000000000000000000000000000000600082015250565b600061334860108361280d565b915061335382613312565b602082019050919050565b600060208201905081810360008301526133778161333b565b9050919050565b7f4d616e616765722063616e6e6f74206275792100000000000000000000000000600082015250565b60006133b460138361280d565b91506133bf8261337e565b602082019050919050565b600060208201905081810360008301526133e3816133a7565b9050919050565b7f546f6b656e20646f6573206e6f74206578697374210000000000000000000000600082015250565b600061342060158361280d565b915061342b826133ea565b602082019050919050565b6000602082019050818103600083015261344f81613413565b9050919050565b7f4e487b7100000000000000000000000000000000000000000000000000000000600052601160045260246000fd5b6000613490826128bd565b915061349b836128bd565b9250828210156134ae576134ad613456565b5b828203905092915050565b7f4e487b7100000000000000000000000000000000000000000000000000000000600052603260045260246000fd5b7f596f752061726520746865206f776e6572206f662074686973204e4654210000600082015250565b600061351e601e8361280d565b9150613529826134e8565b602082019050919050565b6000602082019050818103600083015261354d81613511565b9050919050565b7f54686973204e465420686173206265656e20736f6c6420616c72656164792100600082015250565b600061358a601f8361280d565b915061359582613554565b602082019050919050565b600060208201905081810360008301526135b98161357d565b9050919050565b7f496e73756666696369656e742066756e64732100000000000000000000000000600082015250565b60006135f660138361280d565b9150613601826135c0565b602082019050919050565b60006020820190508181036000830152613625816135e9565b9050919050565b7f4552433732313a206f776e657220717565727920666f72206e6f6e657869737460008201527f656e7420746f6b656e0000000000000000000000000000000000000000000000602082015250565b600061368860298361280d565b91506136938261362c565b604082019050919050565b600060208201905081810360008301526136b78161367b565b9050919050565b7f4552433732313a2062616c616e636520717565727920666f7220746865207a6560008201527f726f206164647265737300000000000000000000000000000000000000000000602082015250565b600061371a602a8361280d565b9150613725826136be565b604082019050919050565b600060208201905081810360008301526137498161370d565b9050919050565b7f4552433732313a20617070726f766520746f2063616c6c657200000000000000600082015250565b600061378660198361280d565b915061379182613750565b602082019050919050565b600060208201905081810360008301526137b581613779565b9050919050565b7f4d616e616765722063616e6e6f742073656c6c21000000000000000000000000600082015250565b60006137f260148361280d565b91506137fd826137bc565b602082019050919050565b60006020820190508181036000830152613821816137e5565b9050919050565b7f45524337323155524953746f726167653a2055524920717565727920666f722060008201527f6e6f6e6578697374656e7420746f6b656e000000000000000000000000000000602082015250565b600061388460318361280d565b915061388f82613828565b604082019050919050565b600060208201905081810360008301526138b381613877565b9050919050565b600081905092915050565b60006138d082612802565b6138da81856138ba565b93506138ea81856020860161281e565b80840191505092915050565b600061390282856138c5565b915061390e82846138c5565b91508190509392505050565b7f4552433732313a206f70657261746f7220717565727920666f72206e6f6e657860008201527f697374656e7420746f6b656e0000000000000000000000000000000000000000602082015250565b6000613976602c8361280d565b91506139818261391a565b604082019050919050565b600060208201905081810360008301526139a581613969565b9050919050565b7f4552433732313a207472616e73666572206f6620746f6b656e2074686174206960008201527f73206e6f74206f776e0000000000000000000000000000000000000000000000602082015250565b6000613a0860298361280d565b9150613a13826139ac565b604082019050919050565b60006020820190508181036000830152613a37816139fb565b9050919050565b7f4552433732313a207472616e7366657220746f20746865207a65726f2061646460008201527f7265737300000000000000000000000000000000000000000000000000000000602082015250565b6000613a9a60248361280d565b9150613aa582613a3e565b604082019050919050565b60006020820190508181036000830152613ac981613a8d565b9050919050565b6000613adb826128bd565b9150613ae6836128bd565b9250827fffffffffffffffffffffffffffffffffffffffffffffffffffffffffffffffff03821115613b1b57613b1a613456565b5b828201905092915050565b7f5061757361626c653a206e6f7420706175736564000000000000000000000000600082015250565b6000613b5c60148361280d565b9150613b6782613b26565b602082019050919050565b60006020820190508181036000830152613b8b81613b4f565b9050919050565b6000613b9d826128bd565b91507fffffffffffffffffffffffffffffffffffffffffffffffffffffffffffffffff821415613bd057613bcf613456565b5b600182019050919050565b7f4552433732313a207472616e7366657220746f206e6f6e20455243373231526560008201527f63656976657220696d706c656d656e7465720000000000000000000000000000602082015250565b6000613c3760328361280d565b9150613c4282613bdb565b604082019050919050565b60006020820190508181036000830152613c6681613c2a565b9050919050565b7f45524337323155524953746f726167653a2055524920736574206f66206e6f6e60008201527f6578697374656e7420746f6b656e000000000000000000000000000000000000602082015250565b6000613cc9602e8361280d565b9150613cd482613c6d565b604082019050919050565b60006020820190508181036000830152613cf881613cbc565b9050919050565b7f4552433732314d657461646174613a2055524920717565727920666f72206e6f60008201527f6e6578697374656e7420746f6b656e0000000000000000000000000000000000602082015250565b6000613d5b602f8361280d565b9150613d6682613cff565b604082019050919050565b60006020820190508181036000830152613d8a81613d4e565b9050919050565b600081519050919050565b600082825260208201905092915050565b6000613db882613d91565b613dc28185613d9c565b9350613dd281856020860161281e565b613ddb81612851565b840191505092915050565b6000608082019050613dfb6000830187612952565b613e086020830186612952565b613e156040830185612c4c565b8181036060830152613e278184613dad565b905095945050505050565b600081519050613e4181612773565b92915050565b600060208284031215613e5d57613e5c61273d565b5b6000613e6b84828501613e32565b91505092915050565b7f4e487b7100000000000000000000000000000000000000000000000000000000600052601260045260246000fd5b6000613eae826128bd565b9150613eb9836128bd565b925082613ec957613ec8613e74565b5b828204905092915050565b6000613edf826128bd565b9150613eea836128bd565b925082613efa57613ef9613e74565b5b828206905092915050565b7f4552433732313a206d696e7420746f20746865207a65726f2061646472657373600082015250565b6000613f3b60208361280d565b9150613f4682613f05565b602082019050919050565b60006020820190508181036000830152613f6a81613f2e565b9050919050565b7f4552433732313a20746f6b656e20616c7265616479206d696e74656400000000600082015250565b6000613fa7601c8361280d565b9150613fb282613f71565b602082019050919050565b60006020820190508181036000830152613fd681613f9a565b905091905056fea26469706673582212205ddf6b26ad06c053f44b282bc00a2aa00b3f0b58517f8cf0c248bbe66ecdc69c64736f6c63430008090033",
  "immutableReferences": {},
  "source": "//SPDX-License-Identifier:MIT\r\npragma solidity ^0.8.9;\r\n\r\nimport \"@openzeppelin/contracts/token/ERC721/extensions/ERC721URIStorage.sol\";\r\nimport \"@openzeppelin/contracts/utils/Counters.sol\";\r\nimport \"@openzeppelin/contracts/security/Pausable.sol\";\r\n\r\ncontract MyNFT is ERC721URIStorage, Pausable {\r\n    using Counters for Counters.Counter;\r\n    Counters.Counter private tokenId;\r\n\r\n    address private manager;\r\n   \r\n    struct PropertyNFT{\r\n        uint256 nftID;\r\n        string nftURI;\r\n        address nftCreater;\r\n        address nftOwner;\r\n        uint256 nftPrice;\r\n        bool nftStatus;\r\n    }\r\n\r\n    PropertyNFT [] properties;\r\n\r\n    constructor() ERC721(\"Real Estate\", \"RLST\") {\r\n        manager=msg.sender;\r\n    }\r\n\r\n    modifier OnlyManager(){\r\n        require(msg.sender==manager,\"Only the manager can pause the NFT Market!\");\r\n        _;\r\n    }\r\n\r\n    function sellNFT(string memory tokenURI, uint256 price) external whenNotPaused{\r\n        require(msg.sender!=manager,\"Manager cannot sell!\");\r\n        tokenId.increment();\r\n        uint256 newTokenId = tokenId.current();\r\n        _safeMint(msg.sender, newTokenId);\r\n        _setTokenURI(newTokenId, tokenURI);\r\n        properties.push(PropertyNFT(newTokenId,tokenURI,msg.sender,msg.sender,price,false));\r\n    }\r\n\r\n    function buyNFT(uint256 TokenId) external payable whenNotPaused {\r\n        require(msg.sender!=manager,\"Manager cannot buy!\");\r\n        require(_exists(TokenId), \"Token does not exist!\");\r\n        require(msg.sender!=properties[TokenId-1].nftOwner,\"You are the owner of this NFT!\");\r\n        require(properties[TokenId-1].nftStatus==false,\"This NFT has been sold already!\");\r\n        require(msg.value >= properties[TokenId-1].nftPrice, \"Insufficient funds!\");\r\n        payable(msg.sender).transfer(msg.value-properties[TokenId-1].nftPrice);\r\n        address owner = ownerOf(TokenId);\r\n        payable(owner).transfer(properties[TokenId-1].nftPrice);\r\n        _transfer(owner, msg.sender, TokenId);\r\n        PropertyNFT storage object = properties[TokenId-1];\r\n        object.nftOwner=msg.sender;\r\n        object.nftStatus=true;\r\n        reset();\r\n    }\r\n\r\n    function getNFTS() external view returns(PropertyNFT[]memory) {\r\n        return properties;\r\n    }\r\n\r\n    function reset() private {\r\n        uint256 check;\r\n        for(uint256 i=0;i<properties.length;i++){\r\n            if(properties[i].nftStatus==true){\r\n                check++;\r\n            }\r\n        }\r\n        if(check==properties.length){\r\n            delete properties;\r\n        }\r\n    }\r\n    function pause() external OnlyManager {\r\n        _pause();\r\n    }\r\n    \r\n    function unpause() external OnlyManager {\r\n        _unpause();\r\n    }\r\n}\r\n\r\n//\"Naman\",4500000000000000000\r\n//\"Madhur\",5000000000000000000\r\n//\"Neha\",7000000000000000000",
  "sourcePath": "C:\\Blockcahin\\RealEstateProject\\contracts\\RealEstate.sol",
  "compiler": {
    "name": "solc",
    "version": "0.8.9+commit.e5eed63a.Emscripten.clang"
  },
  "schemaVersion": "3.4.11",
  "updatedAt": "2023-06-10T02:38:04.048Z",
  "devdoc": {
    "kind": "dev",
    "methods": {
      "approve(address,uint256)": {
        "details": "See {IERC721-approve}."
      },
      "balanceOf(address)": {
        "details": "See {IERC721-balanceOf}."
      },
      "getApproved(uint256)": {
        "details": "See {IERC721-getApproved}."
      },
      "isApprovedForAll(address,address)": {
        "details": "See {IERC721-isApprovedForAll}."
      },
      "name()": {
        "details": "See {IERC721Metadata-name}."
      },
      "ownerOf(uint256)": {
        "details": "See {IERC721-ownerOf}."
      },
      "paused()": {
        "details": "Returns true if the contract is paused, and false otherwise."
      },
      "safeTransferFrom(address,address,uint256)": {
        "details": "See {IERC721-safeTransferFrom}."
      },
      "safeTransferFrom(address,address,uint256,bytes)": {
        "details": "See {IERC721-safeTransferFrom}."
      },
      "setApprovalForAll(address,bool)": {
        "details": "See {IERC721-setApprovalForAll}."
      },
      "supportsInterface(bytes4)": {
        "details": "See {IERC165-supportsInterface}."
      },
      "symbol()": {
        "details": "See {IERC721Metadata-symbol}."
      },
      "tokenURI(uint256)": {
        "details": "See {IERC721Metadata-tokenURI}."
      },
      "transferFrom(address,address,uint256)": {
        "details": "See {IERC721-transferFrom}."
      }
    },
    "version": 1
  },
  "userdoc": {
    "kind": "user",
    "methods": {},
    "version": 1
  }
}