{
  "contractName": "RealEstate",
  "abi": [
    {
      "inputs": [],
      "stateMutability": "nonpayable",
      "type": "constructor"
    },
    {
      "anonymous": false,
      "inputs": [
        {
          "indexed": true,
          "internalType": "address",
          "name": "owner",
          "type": "address"
        },
        {
          "indexed": true,
          "internalType": "address",
          "name": "approved",
          "type": "address"
        },
        {
          "indexed": true,
          "internalType": "uint256",
          "name": "tokenId",
          "type": "uint256"
        }
      ],
      "name": "Approval",
      "type": "event"
    },
    {
      "anonymous": false,
      "inputs": [
        {
          "indexed": true,
          "internalType": "address",
          "name": "owner",
          "type": "address"
        },
        {
          "indexed": true,
          "internalType": "address",
          "name": "operator",
          "type": "address"
        },
        {
          "indexed": false,
          "internalType": "bool",
          "name": "approved",
          "type": "bool"
        }
      ],
      "name": "ApprovalForAll",
      "type": "event"
    },
    {
      "anonymous": false,
      "inputs": [
        {
          "indexed": false,
          "internalType": "address",
          "name": "account",
          "type": "address"
        }
      ],
      "name": "Paused",
      "type": "event"
    },
    {
      "anonymous": false,
      "inputs": [
        {
          "indexed": true,
          "internalType": "address",
          "name": "from",
          "type": "address"
        },
        {
          "indexed": true,
          "internalType": "address",
          "name": "to",
          "type": "address"
        },
        {
          "indexed": true,
          "internalType": "uint256",
          "name": "tokenId",
          "type": "uint256"
        }
      ],
      "name": "Transfer",
      "type": "event"
    },
    {
      "anonymous": false,
      "inputs": [
        {
          "indexed": false,
          "internalType": "address",
          "name": "account",
          "type": "address"
        }
      ],
      "name": "Unpaused",
      "type": "event"
    },
    {
      "inputs": [
        {
          "internalType": "address",
          "name": "to",
          "type": "address"
        },
        {
          "internalType": "uint256",
          "name": "tokenId",
          "type": "uint256"
        }
      ],
      "name": "approve",
      "outputs": [],
      "stateMutability": "nonpayable",
      "type": "function"
    },
    {
      "inputs": [
        {
          "internalType": "address",
          "name": "owner",
          "type": "address"
        }
      ],
      "name": "balanceOf",
      "outputs": [
        {
          "internalType": "uint256",
          "name": "",
          "type": "uint256"
        }
      ],
      "stateMutability": "view",
      "type": "function",
      "constant": true
    },
    {
      "inputs": [
        {
          "internalType": "uint256",
          "name": "tokenId",
          "type": "uint256"
        }
      ],
      "name": "getApproved",
      "outputs": [
        {
          "internalType": "address",
          "name": "",
          "type": "address"
        }
      ],
      "stateMutability": "view",
      "type": "function",
      "constant": true
    },
    {
      "inputs": [
        {
          "internalType": "address",
          "name": "owner",
          "type": "address"
        },
        {
          "internalType": "address",
          "name": "operator",
          "type": "address"
        }
      ],
      "name": "isApprovedForAll",
      "outputs": [
        {
          "internalType": "bool",
          "name": "",
          "type": "bool"
        }
      ],
      "stateMutability": "view",
      "type": "function",
      "constant": true
    },
    {
      "inputs": [],
      "name": "name",
      "outputs": [
        {
          "internalType": "string",
          "name": "",
          "type": "string"
        }
      ],
      "stateMutability": "view",
      "type": "function",
      "constant": true
    },
    {
      "inputs": [
        {
          "internalType": "uint256",
          "name": "tokenId",
          "type": "uint256"
        }
      ],
      "name": "ownerOf",
      "outputs": [
        {
          "internalType": "address",
          "name": "",
          "type": "address"
        }
      ],
      "stateMutability": "view",
      "type": "function",
      "constant": true
    },
    {
      "inputs": [],
      "name": "paused",
      "outputs": [
        {
          "internalType": "bool",
          "name": "",
          "type": "bool"
        }
      ],
      "stateMutability": "view",
      "type": "function",
      "constant": true
    },
    {
      "inputs": [
        {
          "internalType": "address",
          "name": "from",
          "type": "address"
        },
        {
          "internalType": "address",
          "name": "to",
          "type": "address"
        },
        {
          "internalType": "uint256",
          "name": "tokenId",
          "type": "uint256"
        }
      ],
      "name": "safeTransferFrom",
      "outputs": [],
      "stateMutability": "nonpayable",
      "type": "function"
    },
    {
      "inputs": [
        {
          "internalType": "address",
          "name": "from",
          "type": "address"
        },
        {
          "internalType": "address",
          "name": "to",
          "type": "address"
        },
        {
          "internalType": "uint256",
          "name": "tokenId",
          "type": "uint256"
        },
        {
          "internalType": "bytes",
          "name": "_data",
          "type": "bytes"
        }
      ],
      "name": "safeTransferFrom",
      "outputs": [],
      "stateMutability": "nonpayable",
      "type": "function"
    },
    {
      "inputs": [
        {
          "internalType": "address",
          "name": "operator",
          "type": "address"
        },
        {
          "internalType": "bool",
          "name": "approved",
          "type": "bool"
        }
      ],
      "name": "setApprovalForAll",
      "outputs": [],
      "stateMutability": "nonpayable",
      "type": "function"
    },
    {
      "inputs": [
        {
          "internalType": "bytes4",
          "name": "interfaceId",
          "type": "bytes4"
        }
      ],
      "name": "supportsInterface",
      "outputs": [
        {
          "internalType": "bool",
          "name": "",
          "type": "bool"
        }
      ],
      "stateMutability": "view",
      "type": "function",
      "constant": true
    },
    {
      "inputs": [],
      "name": "symbol",
      "outputs": [
        {
          "internalType": "string",
          "name": "",
          "type": "string"
        }
      ],
      "stateMutability": "view",
      "type": "function",
      "constant": true
    },
    {
      "inputs": [
        {
          "internalType": "uint256",
          "name": "tokenId",
          "type": "uint256"
        }
      ],
      "name": "tokenURI",
      "outputs": [
        {
          "internalType": "string",
          "name": "",
          "type": "string"
        }
      ],
      "stateMutability": "view",
      "type": "function",
      "constant": true
    },
    {
      "inputs": [
        {
          "internalType": "address",
          "name": "from",
          "type": "address"
        },
        {
          "internalType": "address",
          "name": "to",
          "type": "address"
        },
        {
          "internalType": "uint256",
          "name": "tokenId",
          "type": "uint256"
        }
      ],
      "name": "transferFrom",
      "outputs": [],
      "stateMutability": "nonpayable",
      "type": "function"
    },
    {
      "inputs": [],
      "name": "getManager",
      "outputs": [
        {
          "internalType": "address",
          "name": "",
          "type": "address"
        }
      ],
      "stateMutability": "view",
      "type": "function",
      "constant": true
    },
    {
      "inputs": [
        {
          "internalType": "string",
          "name": "tokenURI",
          "type": "string"
        },
        {
          "internalType": "uint256",
          "name": "price",
          "type": "uint256"
        }
      ],
      "name": "sellNFT",
      "outputs": [],
      "stateMutability": "nonpayable",
      "type": "function"
    },
    {
      "inputs": [
        {
          "internalType": "uint256",
          "name": "TokenId",
          "type": "uint256"
        }
      ],
      "name": "indexof",
      "outputs": [
        {
          "internalType": "uint256",
          "name": "",
          "type": "uint256"
        }
      ],
      "stateMutability": "view",
      "type": "function",
      "constant": true
    },
    {
      "inputs": [
        {
          "internalType": "uint256",
          "name": "TokenId",
          "type": "uint256"
        }
      ],
      "name": "buyNFT",
      "outputs": [],
      "stateMutability": "payable",
      "type": "function",
      "payable": true
    },
    {
      "inputs": [],
      "name": "getNFTS",
      "outputs": [
        {
          "components": [
            {
              "internalType": "uint256",
              "name": "nftID",
              "type": "uint256"
            },
            {
              "internalType": "string",
              "name": "nftURI",
              "type": "string"
            },
            {
              "internalType": "address",
              "name": "nftCreater",
              "type": "address"
            },
            {
              "internalType": "address",
              "name": "nftOwner",
              "type": "address"
            },
            {
              "internalType": "uint256",
              "name": "nftPrice",
              "type": "uint256"
            },
            {
              "internalType": "bool",
              "name": "nftStatus",
              "type": "bool"
            }
          ],
          "internalType": "struct RealEstate.PropertyNFT[]",
          "name": "",
          "type": "tuple[]"
        }
      ],
      "stateMutability": "view",
      "type": "function",
      "constant": true
    },
    {
      "inputs": [],
      "name": "reset",
      "outputs": [],
      "stateMutability": "nonpayable",
      "type": "function"
    },
    {
      "inputs": [],
      "name": "pause",
      "outputs": [],
      "stateMutability": "nonpayable",
      "type": "function"
    },
    {
      "inputs": [],
      "name": "unpause",
      "outputs": [],
      "stateMutability": "nonpayable",
      "type": "function"
    }
  ],
  "bytecode": "0x60806040523480156200001157600080fd5b506040518060400160405280600b81526020017f5265616c204573746174650000000000000000000000000000000000000000008152506040518060400160405280600481526020017f524c53540000000000000000000000000000000000000000000000000000000081525081600090805190602001906200009692919062000114565b508060019080519060200190620000af92919062000114565b5050506000600760006101000a81548160ff02191690831515021790555033600960006101000a81548173ffffffffffffffffffffffffffffffffffffffff021916908373ffffffffffffffffffffffffffffffffffffffff16021790555062000229565b8280546200012290620001f3565b90600052602060002090601f01602090048101928262000146576000855562000192565b82601f106200016157805160ff191683800117855562000192565b8280016001018555821562000192579182015b828111156200019157825182559160200191906001019062000174565b5b509050620001a19190620001a5565b5090565b5b80821115620001c0576000816000905550600101620001a6565b5090565b7f4e487b7100000000000000000000000000000000000000000000000000000000600052602260045260246000fd5b600060028204905060018216806200020c57607f821691505b60208210811415620002235762000222620001c4565b5b50919050565b6142ff80620002396000396000f3fe6080604052600436106101355760003560e01c806367a23596116100ab578063b88d4fde1161006f578063b88d4fde14610405578063c20ed3851461042e578063c87b56dd14610457578063d500958414610494578063d826f88f146104bf578063e985e9c5146104d657610135565b806367a235961461033257806370a082311461035d5780638456cb591461039a57806395d89b41146103b1578063a22cb465146103dc57610135565b806323b872dd116100fd57806323b872dd146102455780633f4ba83a1461026e57806342842e0e1461028557806351ed8288146102ae5780635c975abb146102ca5780636352211e146102f557610135565b806301ffc9a71461013a57806302be7a321461017757806306fdde03146101b4578063081812fc146101df578063095ea7b31461021c575b600080fd5b34801561014657600080fd5b50610161600480360381019061015c9190612967565b610513565b60405161016e91906129af565b60405180910390f35b34801561018357600080fd5b5061019e60048036038101906101999190612a00565b6105f5565b6040516101ab9190612a3c565b60405180910390f35b3480156101c057600080fd5b506101c961067e565b6040516101d69190612af0565b60405180910390f35b3480156101eb57600080fd5b5061020660048036038101906102019190612a00565b610710565b6040516102139190612b53565b60405180910390f35b34801561022857600080fd5b50610243600480360381019061023e9190612b9a565b610795565b005b34801561025157600080fd5b5061026c60048036038101906102679190612bda565b6108ad565b005b34801561027a57600080fd5b5061028361090d565b005b34801561029157600080fd5b506102ac60048036038101906102a79190612bda565b6109a7565b005b6102c860048036038101906102c39190612a00565b6109c7565b005b3480156102d657600080fd5b506102df610e25565b6040516102ec91906129af565b60405180910390f35b34801561030157600080fd5b5061031c60048036038101906103179190612a00565b610e3c565b6040516103299190612b53565b60405180910390f35b34801561033e57600080fd5b50610347610eee565b6040516103549190612def565b60405180910390f35b34801561036957600080fd5b50610384600480360381019061037f9190612e11565b6110ba565b6040516103919190612a3c565b60405180910390f35b3480156103a657600080fd5b506103af611172565b005b3480156103bd57600080fd5b506103c661120c565b6040516103d39190612af0565b60405180910390f35b3480156103e857600080fd5b5061040360048036038101906103fe9190612e6a565b61129e565b005b34801561041157600080fd5b5061042c60048036038101906104279190612fdf565b61141f565b005b34801561043a57600080fd5b5061045560048036038101906104509190613103565b611481565b005b34801561046357600080fd5b5061047e60048036038101906104799190612a00565b6116f3565b60405161048b9190612af0565b60405180910390f35b3480156104a057600080fd5b506104a9611845565b6040516104b69190612b53565b60405180910390f35b3480156104cb57600080fd5b506104d461186f565b005b3480156104e257600080fd5b506104fd60048036038101906104f8919061315f565b6119a8565b60405161050a91906129af565b60405180910390f35b60007f80ac58cd000000000000000000000000000000000000000000000000000000007bffffffffffffffffffffffffffffffffffffffffffffffffffffffff1916827bffffffffffffffffffffffffffffffffffffffffffffffffffffffff191614806105de57507f5b5e139f000000000000000000000000000000000000000000000000000000007bffffffffffffffffffffffffffffffffffffffffffffffffffffffff1916827bffffffffffffffffffffffffffffffffffffffffffffffffffffffff1916145b806105ee57506105ed82611a3c565b5b9050919050565b600080600090505b600b805490508110156106535782600b828154811061061f5761061e61319f565b5b90600052602060002090600602016000015414156106405780915050610679565b808061064b906131fd565b9150506105fd565b506001600b80549050600b8054905061066c9190613246565b6106769190613246565b90505b919050565b60606000805461068d906132a9565b80601f01602080910402602001604051908101604052809291908181526020018280546106b9906132a9565b80156107065780601f106106db57610100808354040283529160200191610706565b820191906000526020600020905b8154815290600101906020018083116106e957829003601f168201915b5050505050905090565b600061071b82611aa6565b61075a576040517f08c379a00000000000000000000000000000000000000000000000000000000081526004016107519061334d565b60405180910390fd5b6004600083815260200190815260200160002060009054906101000a900473ffffffffffffffffffffffffffffffffffffffff169050919050565b60006107a082610e3c565b90508073ffffffffffffffffffffffffffffffffffffffff168373ffffffffffffffffffffffffffffffffffffffff161415610811576040517f08c379a0000000000000000000000000000000000000000000000000000000008152600401610808906133df565b60405180910390fd5b8073ffffffffffffffffffffffffffffffffffffffff16610830611b12565b73ffffffffffffffffffffffffffffffffffffffff16148061085f575061085e81610859611b12565b6119a8565b5b61089e576040517f08c379a000000000000000000000000000000000000000000000000000000000815260040161089590613471565b60405180910390fd5b6108a88383611b1a565b505050565b6108be6108b8611b12565b82611bd3565b6108fd576040517f08c379a00000000000000000000000000000000000000000000000000000000081526004016108f490613503565b60405180910390fd5b610908838383611cb1565b505050565b600960009054906101000a900473ffffffffffffffffffffffffffffffffffffffff1673ffffffffffffffffffffffffffffffffffffffff163373ffffffffffffffffffffffffffffffffffffffff161461099d576040517f08c379a000000000000000000000000000000000000000000000000000000000815260040161099490613595565b60405180910390fd5b6109a5611f0d565b565b6109c28383836040518060200160405280600081525061141f565b505050565b6109cf610e25565b15610a0f576040517f08c379a0000000000000000000000000000000000000000000000000000000008152600401610a0690613601565b60405180910390fd5b600960009054906101000a900473ffffffffffffffffffffffffffffffffffffffff1673ffffffffffffffffffffffffffffffffffffffff163373ffffffffffffffffffffffffffffffffffffffff161415610aa0576040517f08c379a0000000000000000000000000000000000000000000000000000000008152600401610a979061366d565b60405180910390fd5b6000610aab826105f5565b90506000811015610af1576040517f08c379a0000000000000000000000000000000000000000000000000000000008152600401610ae8906136d9565b60405180910390fd5b600b8181548110610b0557610b0461319f565b5b906000526020600020906006020160030160009054906101000a900473ffffffffffffffffffffffffffffffffffffffff1673ffffffffffffffffffffffffffffffffffffffff163373ffffffffffffffffffffffffffffffffffffffff161415610ba5576040517f08c379a0000000000000000000000000000000000000000000000000000000008152600401610b9c90613745565b60405180910390fd5b60001515600b8281548110610bbd57610bbc61319f565b5b906000526020600020906006020160050160009054906101000a900460ff16151514610c1e576040517f08c379a0000000000000000000000000000000000000000000000000000000008152600401610c15906137b1565b60405180910390fd5b600b8181548110610c3257610c3161319f565b5b906000526020600020906006020160040154341015610c86576040517f08c379a0000000000000000000000000000000000000000000000000000000008152600401610c7d9061381d565b60405180910390fd5b3373ffffffffffffffffffffffffffffffffffffffff166108fc600b8381548110610cb457610cb361319f565b5b90600052602060002090600602016004015434610cd19190613246565b9081150290604051600060405180830381858888f19350505050158015610cfc573d6000803e3d6000fd5b506000610d0883610e3c565b90508073ffffffffffffffffffffffffffffffffffffffff166108fc600b8481548110610d3857610d3761319f565b5b9060005260206000209060060201600401549081150290604051600060405180830381858888f19350505050158015610d75573d6000803e3d6000fd5b50610d81813385611cb1565b6000600b8381548110610d9757610d9661319f565b5b90600052602060002090600602019050338160030160006101000a81548173ffffffffffffffffffffffffffffffffffffffff021916908373ffffffffffffffffffffffffffffffffffffffff16021790555060018160050160006101000a81548160ff021916908315150217905550600a6000815480929190610e1a906131fd565b919050555050505050565b6000600760009054906101000a900460ff16905090565b6000806002600084815260200190815260200160002060009054906101000a900473ffffffffffffffffffffffffffffffffffffffff169050600073ffffffffffffffffffffffffffffffffffffffff168173ffffffffffffffffffffffffffffffffffffffff161415610ee5576040517f08c379a0000000000000000000000000000000000000000000000000000000008152600401610edc906138af565b60405180910390fd5b80915050919050565b6060600b805480602002602001604051908101604052809291908181526020016000905b828210156110b157838290600052602060002090600602016040518060c001604052908160008201548152602001600182018054610f4f906132a9565b80601f0160208091040260200160405190810160405280929190818152602001828054610f7b906132a9565b8015610fc85780601f10610f9d57610100808354040283529160200191610fc8565b820191906000526020600020905b815481529060010190602001808311610fab57829003601f168201915b505050505081526020016002820160009054906101000a900473ffffffffffffffffffffffffffffffffffffffff1673ffffffffffffffffffffffffffffffffffffffff1673ffffffffffffffffffffffffffffffffffffffff1681526020016003820160009054906101000a900473ffffffffffffffffffffffffffffffffffffffff1673ffffffffffffffffffffffffffffffffffffffff1673ffffffffffffffffffffffffffffffffffffffff168152602001600482015481526020016005820160009054906101000a900460ff16151515158152505081526020019060010190610f12565b50505050905090565b60008073ffffffffffffffffffffffffffffffffffffffff168273ffffffffffffffffffffffffffffffffffffffff16141561112b576040517f08c379a000000000000000000000000000000000000000000000000000000000815260040161112290613941565b60405180910390fd5b600360008373ffffffffffffffffffffffffffffffffffffffff1673ffffffffffffffffffffffffffffffffffffffff168152602001908152602001600020549050919050565b600960009054906101000a900473ffffffffffffffffffffffffffffffffffffffff1673ffffffffffffffffffffffffffffffffffffffff163373ffffffffffffffffffffffffffffffffffffffff1614611202576040517f08c379a00000000000000000000000000000000000000000000000000000000081526004016111f990613595565b60405180910390fd5b61120a611faf565b565b60606001805461121b906132a9565b80601f0160208091040260200160405190810160405280929190818152602001828054611247906132a9565b80156112945780601f1061126957610100808354040283529160200191611294565b820191906000526020600020905b81548152906001019060200180831161127757829003601f168201915b5050505050905090565b6112a6611b12565b73ffffffffffffffffffffffffffffffffffffffff168273ffffffffffffffffffffffffffffffffffffffff161415611314576040517f08c379a000000000000000000000000000000000000000000000000000000000815260040161130b906139ad565b60405180910390fd5b8060056000611321611b12565b73ffffffffffffffffffffffffffffffffffffffff1673ffffffffffffffffffffffffffffffffffffffff16815260200190815260200160002060008473ffffffffffffffffffffffffffffffffffffffff1673ffffffffffffffffffffffffffffffffffffffff16815260200190815260200160002060006101000a81548160ff0219169083151502179055508173ffffffffffffffffffffffffffffffffffffffff166113ce611b12565b73ffffffffffffffffffffffffffffffffffffffff167f17307eab39ab6107e8899845ad3d59bd9653f200f220920489ca2b5937696c318360405161141391906129af565b60405180910390a35050565b61143061142a611b12565b83611bd3565b61146f576040517f08c379a000000000000000000000000000000000000000000000000000000000815260040161146690613503565b60405180910390fd5b61147b84848484612052565b50505050565b611489610e25565b156114c9576040517f08c379a00000000000000000000000000000000000000000000000000000000081526004016114c090613601565b60405180910390fd5b600960009054906101000a900473ffffffffffffffffffffffffffffffffffffffff1673ffffffffffffffffffffffffffffffffffffffff163373ffffffffffffffffffffffffffffffffffffffff16141561155a576040517f08c379a000000000000000000000000000000000000000000000000000000000815260040161155190613a19565b60405180910390fd5b61156460086120ae565b600061157060086120c4565b905061157c33826120d2565b61158681846120f0565b600b6040518060c001604052808381526020018581526020013373ffffffffffffffffffffffffffffffffffffffff1681526020013373ffffffffffffffffffffffffffffffffffffffff16815260200184815260200160001515815250908060018154018082558091505060019003906000526020600020906006020160009091909190915060008201518160000155602082015181600101908051906020019061163392919061275b565b5060408201518160020160006101000a81548173ffffffffffffffffffffffffffffffffffffffff021916908373ffffffffffffffffffffffffffffffffffffffff16021790555060608201518160030160006101000a81548173ffffffffffffffffffffffffffffffffffffffff021916908373ffffffffffffffffffffffffffffffffffffffff1602179055506080820151816004015560a08201518160050160006101000a81548160ff0219169083151502179055505050505050565b60606116fe82611aa6565b61173d576040517f08c379a000000000000000000000000000000000000000000000000000000000815260040161173490613aab565b60405180910390fd5b600060066000848152602001908152602001600020805461175d906132a9565b80601f0160208091040260200160405190810160405280929190818152602001828054611789906132a9565b80156117d65780601f106117ab576101008083540402835291602001916117d6565b820191906000526020600020905b8154815290600101906020018083116117b957829003601f168201915b5050505050905060006117e7612164565b90506000815114156117fd578192505050611840565b60008251111561183257808260405160200161181a929190613b07565b60405160208183030381529060405292505050611840565b61183b8461217b565b925050505b919050565b6000600960009054906101000a900473ffffffffffffffffffffffffffffffffffffffff16905090565b600960009054906101000a900473ffffffffffffffffffffffffffffffffffffffff1673ffffffffffffffffffffffffffffffffffffffff163373ffffffffffffffffffffffffffffffffffffffff16146118ff576040517f08c379a00000000000000000000000000000000000000000000000000000000081526004016118f690613595565b60405180910390fd5b6000600b8054905011611947576040517f08c379a000000000000000000000000000000000000000000000000000000000815260040161193e90613b9d565b60405180910390fd5b600b80549050600a5414611990576040517f08c379a000000000000000000000000000000000000000000000000000000000815260040161198790613c2f565b60405180910390fd5b600b600061199e91906127e1565b6000600a81905550565b6000600560008473ffffffffffffffffffffffffffffffffffffffff1673ffffffffffffffffffffffffffffffffffffffff16815260200190815260200160002060008373ffffffffffffffffffffffffffffffffffffffff1673ffffffffffffffffffffffffffffffffffffffff16815260200190815260200160002060009054906101000a900460ff16905092915050565b60007f01ffc9a7000000000000000000000000000000000000000000000000000000007bffffffffffffffffffffffffffffffffffffffffffffffffffffffff1916827bffffffffffffffffffffffffffffffffffffffffffffffffffffffff1916149050919050565b60008073ffffffffffffffffffffffffffffffffffffffff166002600084815260200190815260200160002060009054906101000a900473ffffffffffffffffffffffffffffffffffffffff1673ffffffffffffffffffffffffffffffffffffffff1614159050919050565b600033905090565b816004600083815260200190815260200160002060006101000a81548173ffffffffffffffffffffffffffffffffffffffff021916908373ffffffffffffffffffffffffffffffffffffffff160217905550808273ffffffffffffffffffffffffffffffffffffffff16611b8d83610e3c565b73ffffffffffffffffffffffffffffffffffffffff167f8c5be1e5ebec7d5bd14f71427d1e84f3dd0314c0f7b2291e5b200ac8c7c3b92560405160405180910390a45050565b6000611bde82611aa6565b611c1d576040517f08c379a0000000000000000000000000000000000000000000000000000000008152600401611c1490613cc1565b60405180910390fd5b6000611c2883610e3c565b90508073ffffffffffffffffffffffffffffffffffffffff168473ffffffffffffffffffffffffffffffffffffffff161480611c9757508373ffffffffffffffffffffffffffffffffffffffff16611c7f84610710565b73ffffffffffffffffffffffffffffffffffffffff16145b80611ca85750611ca781856119a8565b5b91505092915050565b8273ffffffffffffffffffffffffffffffffffffffff16611cd182610e3c565b73ffffffffffffffffffffffffffffffffffffffff1614611d27576040517f08c379a0000000000000000000000000000000000000000000000000000000008152600401611d1e90613d53565b60405180910390fd5b600073ffffffffffffffffffffffffffffffffffffffff168273ffffffffffffffffffffffffffffffffffffffff161415611d97576040517f08c379a0000000000000000000000000000000000000000000000000000000008152600401611d8e90613de5565b60405180910390fd5b611da2838383612222565b611dad600082611b1a565b6001600360008573ffffffffffffffffffffffffffffffffffffffff1673ffffffffffffffffffffffffffffffffffffffff1681526020019081526020016000206000828254611dfd9190613246565b925050819055506001600360008473ffffffffffffffffffffffffffffffffffffffff1673ffffffffffffffffffffffffffffffffffffffff1681526020019081526020016000206000828254611e549190613e05565b92505081905550816002600083815260200190815260200160002060006101000a81548173ffffffffffffffffffffffffffffffffffffffff021916908373ffffffffffffffffffffffffffffffffffffffff160217905550808273ffffffffffffffffffffffffffffffffffffffff168473ffffffffffffffffffffffffffffffffffffffff167fddf252ad1be2c89b69c2b068fc378daa952ba7f163c4a11628f55a4df523b3ef60405160405180910390a4505050565b611f15610e25565b611f54576040517f08c379a0000000000000000000000000000000000000000000000000000000008152600401611f4b90613ea7565b60405180910390fd5b6000600760006101000a81548160ff0219169083151502179055507f5db9ee0a495bf2e6ff9c91a7834c1ba4fdd244a5e8aa4e537bd38aeae4b073aa611f98611b12565b604051611fa59190612b53565b60405180910390a1565b611fb7610e25565b15611ff7576040517f08c379a0000000000000000000000000000000000000000000000000000000008152600401611fee90613601565b60405180910390fd5b6001600760006101000a81548160ff0219169083151502179055507f62e78cea01bee320cd4e420270b5ea74000d11b0c9f74754ebdbfc544b05a25861203b611b12565b6040516120489190612b53565b60405180910390a1565b61205d848484611cb1565b61206984848484612227565b6120a8576040517f08c379a000000000000000000000000000000000000000000000000000000000815260040161209f90613f39565b60405180910390fd5b50505050565b6001816000016000828254019250508190555050565b600081600001549050919050565b6120ec8282604051806020016040528060008152506123be565b5050565b6120f982611aa6565b612138576040517f08c379a000000000000000000000000000000000000000000000000000000000815260040161212f90613fcb565b60405180910390fd5b8060066000848152602001908152602001600020908051906020019061215f92919061275b565b505050565b606060405180602001604052806000815250905090565b606061218682611aa6565b6121c5576040517f08c379a00000000000000000000000000000000000000000000000000000000081526004016121bc9061405d565b60405180910390fd5b60006121cf612164565b905060008151116121ef576040518060200160405280600081525061221a565b806121f984612419565b60405160200161220a929190613b07565b6040516020818303038152906040525b915050919050565b505050565b60006122488473ffffffffffffffffffffffffffffffffffffffff1661257a565b156123b1578373ffffffffffffffffffffffffffffffffffffffff1663150b7a02612271611b12565b8786866040518563ffffffff1660e01b815260040161229394939291906140d2565b602060405180830381600087803b1580156122ad57600080fd5b505af19250505080156122de57506040513d601f19601f820116820180604052508101906122db9190614133565b60015b612361573d806000811461230e576040519150601f19603f3d011682016040523d82523d6000602084013e612313565b606091505b50600081511415612359576040517f08c379a000000000000000000000000000000000000000000000000000000000815260040161235090613f39565b60405180910390fd5b805181602001fd5b63150b7a0260e01b7bffffffffffffffffffffffffffffffffffffffffffffffffffffffff1916817bffffffffffffffffffffffffffffffffffffffffffffffffffffffff1916149150506123b6565b600190505b949350505050565b6123c8838361258d565b6123d56000848484612227565b612414576040517f08c379a000000000000000000000000000000000000000000000000000000000815260040161240b90613f39565b60405180910390fd5b505050565b60606000821415612461576040518060400160405280600181526020017f30000000000000000000000000000000000000000000000000000000000000008152509050612575565b600082905060005b6000821461249357808061247c906131fd565b915050600a8261248c919061418f565b9150612469565b60008167ffffffffffffffff8111156124af576124ae612eb4565b5b6040519080825280601f01601f1916602001820160405280156124e15781602001600182028036833780820191505090505b5090505b6000851461256e576001826124fa9190613246565b9150600a8561250991906141c0565b60306125159190613e05565b60f81b81838151811061252b5761252a61319f565b5b60200101907effffffffffffffffffffffffffffffffffffffffffffffffffffffffffffff1916908160001a905350600a85612567919061418f565b94506124e5565b8093505050505b919050565b600080823b905060008111915050919050565b600073ffffffffffffffffffffffffffffffffffffffff168273ffffffffffffffffffffffffffffffffffffffff1614156125fd576040517f08c379a00000000000000000000000000000000000000000000000000000000081526004016125f49061423d565b60405180910390fd5b61260681611aa6565b15612646576040517f08c379a000000000000000000000000000000000000000000000000000000000815260040161263d906142a9565b60405180910390fd5b61265260008383612222565b6001600360008473ffffffffffffffffffffffffffffffffffffffff1673ffffffffffffffffffffffffffffffffffffffff16815260200190815260200160002060008282546126a29190613e05565b92505081905550816002600083815260200190815260200160002060006101000a81548173ffffffffffffffffffffffffffffffffffffffff021916908373ffffffffffffffffffffffffffffffffffffffff160217905550808273ffffffffffffffffffffffffffffffffffffffff16600073ffffffffffffffffffffffffffffffffffffffff167fddf252ad1be2c89b69c2b068fc378daa952ba7f163c4a11628f55a4df523b3ef60405160405180910390a45050565b828054612767906132a9565b90600052602060002090601f01602090048101928261278957600085556127d0565b82601f106127a257805160ff19168380011785556127d0565b828001600101855582156127d0579182015b828111156127cf5782518255916020019190600101906127b4565b5b5090506127dd9190612805565b5090565b50805460008255600602906000526020600020908101906128029190612822565b50565b5b8082111561281e576000816000905550600101612806565b5090565b5b808211156128b75760008082016000905560018201600061284491906128bb565b6002820160006101000a81549073ffffffffffffffffffffffffffffffffffffffff02191690556003820160006101000a81549073ffffffffffffffffffffffffffffffffffffffff021916905560048201600090556005820160006101000a81549060ff021916905550600601612823565b5090565b5080546128c7906132a9565b6000825580601f106128d957506128f8565b601f0160209004906000526020600020908101906128f79190612805565b5b50565b6000604051905090565b600080fd5b600080fd5b60007fffffffff0000000000000000000000000000000000000000000000000000000082169050919050565b6129448161290f565b811461294f57600080fd5b50565b6000813590506129618161293b565b92915050565b60006020828403121561297d5761297c612905565b5b600061298b84828501612952565b91505092915050565b60008115159050919050565b6129a981612994565b82525050565b60006020820190506129c460008301846129a0565b92915050565b6000819050919050565b6129dd816129ca565b81146129e857600080fd5b50565b6000813590506129fa816129d4565b92915050565b600060208284031215612a1657612a15612905565b5b6000612a24848285016129eb565b91505092915050565b612a36816129ca565b82525050565b6000602082019050612a516000830184612a2d565b92915050565b600081519050919050565b600082825260208201905092915050565b60005b83811015612a91578082015181840152602081019050612a76565b83811115612aa0576000848401525b50505050565b6000601f19601f8301169050919050565b6000612ac282612a57565b612acc8185612a62565b9350612adc818560208601612a73565b612ae581612aa6565b840191505092915050565b60006020820190508181036000830152612b0a8184612ab7565b905092915050565b600073ffffffffffffffffffffffffffffffffffffffff82169050919050565b6000612b3d82612b12565b9050919050565b612b4d81612b32565b82525050565b6000602082019050612b686000830184612b44565b92915050565b612b7781612b32565b8114612b8257600080fd5b50565b600081359050612b9481612b6e565b92915050565b60008060408385031215612bb157612bb0612905565b5b6000612bbf85828601612b85565b9250506020612bd0858286016129eb565b9150509250929050565b600080600060608486031215612bf357612bf2612905565b5b6000612c0186828701612b85565b9350506020612c1286828701612b85565b9250506040612c23868287016129eb565b9150509250925092565b600081519050919050565b600082825260208201905092915050565b6000819050602082019050919050565b612c62816129ca565b82525050565b600082825260208201905092915050565b6000612c8482612a57565b612c8e8185612c68565b9350612c9e818560208601612a73565b612ca781612aa6565b840191505092915050565b612cbb81612b32565b82525050565b612cca81612994565b82525050565b600060c083016000830151612ce86000860182612c59565b5060208301518482036020860152612d008282612c79565b9150506040830151612d156040860182612cb2565b506060830151612d286060860182612cb2565b506080830151612d3b6080860182612c59565b5060a0830151612d4e60a0860182612cc1565b508091505092915050565b6000612d658383612cd0565b905092915050565b6000602082019050919050565b6000612d8582612c2d565b612d8f8185612c38565b935083602082028501612da185612c49565b8060005b85811015612ddd5784840389528151612dbe8582612d59565b9450612dc983612d6d565b925060208a01995050600181019050612da5565b50829750879550505050505092915050565b60006020820190508181036000830152612e098184612d7a565b905092915050565b600060208284031215612e2757612e26612905565b5b6000612e3584828501612b85565b91505092915050565b612e4781612994565b8114612e5257600080fd5b50565b600081359050612e6481612e3e565b92915050565b60008060408385031215612e8157612e80612905565b5b6000612e8f85828601612b85565b9250506020612ea085828601612e55565b9150509250929050565b600080fd5b600080fd5b7f4e487b7100000000000000000000000000000000000000000000000000000000600052604160045260246000fd5b612eec82612aa6565b810181811067ffffffffffffffff82111715612f0b57612f0a612eb4565b5b80604052505050565b6000612f1e6128fb565b9050612f2a8282612ee3565b919050565b600067ffffffffffffffff821115612f4a57612f49612eb4565b5b612f5382612aa6565b9050602081019050919050565b82818337600083830152505050565b6000612f82612f7d84612f2f565b612f14565b905082815260208101848484011115612f9e57612f9d612eaf565b5b612fa9848285612f60565b509392505050565b600082601f830112612fc657612fc5612eaa565b5b8135612fd6848260208601612f6f565b91505092915050565b60008060008060808587031215612ff957612ff8612905565b5b600061300787828801612b85565b945050602061301887828801612b85565b9350506040613029878288016129eb565b925050606085013567ffffffffffffffff81111561304a5761304961290a565b5b61305687828801612fb1565b91505092959194509250565b600067ffffffffffffffff82111561307d5761307c612eb4565b5b61308682612aa6565b9050602081019050919050565b60006130a66130a184613062565b612f14565b9050828152602081018484840111156130c2576130c1612eaf565b5b6130cd848285612f60565b509392505050565b600082601f8301126130ea576130e9612eaa565b5b81356130fa848260208601613093565b91505092915050565b6000806040838503121561311a57613119612905565b5b600083013567ffffffffffffffff8111156131385761313761290a565b5b613144858286016130d5565b9250506020613155858286016129eb565b9150509250929050565b6000806040838503121561317657613175612905565b5b600061318485828601612b85565b925050602061319585828601612b85565b9150509250929050565b7f4e487b7100000000000000000000000000000000000000000000000000000000600052603260045260246000fd5b7f4e487b7100000000000000000000000000000000000000000000000000000000600052601160045260246000fd5b6000613208826129ca565b91507fffffffffffffffffffffffffffffffffffffffffffffffffffffffffffffffff82141561323b5761323a6131ce565b5b600182019050919050565b6000613251826129ca565b915061325c836129ca565b92508282101561326f5761326e6131ce565b5b828203905092915050565b7f4e487b7100000000000000000000000000000000000000000000000000000000600052602260045260246000fd5b600060028204905060018216806132c157607f821691505b602082108114156132d5576132d461327a565b5b50919050565b7f4552433732313a20617070726f76656420717565727920666f72206e6f6e657860008201527f697374656e7420746f6b656e0000000000000000000000000000000000000000602082015250565b6000613337602c83612a62565b9150613342826132db565b604082019050919050565b600060208201905081810360008301526133668161332a565b9050919050565b7f4552433732313a20617070726f76616c20746f2063757272656e74206f776e6560008201527f7200000000000000000000000000000000000000000000000000000000000000602082015250565b60006133c9602183612a62565b91506133d48261336d565b604082019050919050565b600060208201905081810360008301526133f8816133bc565b9050919050565b7f4552433732313a20617070726f76652063616c6c6572206973206e6f74206f7760008201527f6e6572206e6f7220617070726f76656420666f7220616c6c0000000000000000602082015250565b600061345b603883612a62565b9150613466826133ff565b604082019050919050565b6000602082019050818103600083015261348a8161344e565b9050919050565b7f4552433732313a207472616e736665722063616c6c6572206973206e6f74206f60008201527f776e6572206e6f7220617070726f766564000000000000000000000000000000602082015250565b60006134ed603183612a62565b91506134f882613491565b604082019050919050565b6000602082019050818103600083015261351c816134e0565b9050919050565b7f4f6e6c7920746865206d616e616765722063616e2063616c6c2074686973206660008201527f756e6374696f6e21000000000000000000000000000000000000000000000000602082015250565b600061357f602883612a62565b915061358a82613523565b604082019050919050565b600060208201905081810360008301526135ae81613572565b9050919050565b7f5061757361626c653a2070617573656400000000000000000000000000000000600082015250565b60006135eb601083612a62565b91506135f6826135b5565b602082019050919050565b6000602082019050818103600083015261361a816135de565b9050919050565b7f4d616e616765722063616e6e6f74206275792100000000000000000000000000600082015250565b6000613657601383612a62565b915061366282613621565b602082019050919050565b600060208201905081810360008301526136868161364a565b9050919050565b7f546f6b656e20646f6573206e6f74206578697374210000000000000000000000600082015250565b60006136c3601583612a62565b91506136ce8261368d565b602082019050919050565b600060208201905081810360008301526136f2816136b6565b9050919050565b7f596f752061726520746865206f776e6572206f662074686973204e4654210000600082015250565b600061372f601e83612a62565b915061373a826136f9565b602082019050919050565b6000602082019050818103600083015261375e81613722565b9050919050565b7f54686973204e465420686173206265656e20736f6c6420616c72656164792100600082015250565b600061379b601f83612a62565b91506137a682613765565b602082019050919050565b600060208201905081810360008301526137ca8161378e565b9050919050565b7f496e73756666696369656e742066756e64732100000000000000000000000000600082015250565b6000613807601383612a62565b9150613812826137d1565b602082019050919050565b60006020820190508181036000830152613836816137fa565b9050919050565b7f4552433732313a206f776e657220717565727920666f72206e6f6e657869737460008201527f656e7420746f6b656e0000000000000000000000000000000000000000000000602082015250565b6000613899602983612a62565b91506138a48261383d565b604082019050919050565b600060208201905081810360008301526138c88161388c565b9050919050565b7f4552433732313a2062616c616e636520717565727920666f7220746865207a6560008201527f726f206164647265737300000000000000000000000000000000000000000000602082015250565b600061392b602a83612a62565b9150613936826138cf565b604082019050919050565b6000602082019050818103600083015261395a8161391e565b9050919050565b7f4552433732313a20617070726f766520746f2063616c6c657200000000000000600082015250565b6000613997601983612a62565b91506139a282613961565b602082019050919050565b600060208201905081810360008301526139c68161398a565b9050919050565b7f4d616e616765722063616e6e6f742073656c6c21000000000000000000000000600082015250565b6000613a03601483612a62565b9150613a0e826139cd565b602082019050919050565b60006020820190508181036000830152613a32816139f6565b9050919050565b7f45524337323155524953746f726167653a2055524920717565727920666f722060008201527f6e6f6e6578697374656e7420746f6b656e000000000000000000000000000000602082015250565b6000613a95603183612a62565b9150613aa082613a39565b604082019050919050565b60006020820190508181036000830152613ac481613a88565b9050919050565b600081905092915050565b6000613ae182612a57565b613aeb8185613acb565b9350613afb818560208601612a73565b80840191505092915050565b6000613b138285613ad6565b9150613b1f8284613ad6565b91508190509392505050565b7f546865726520617265206e6f2070726f7065727469657320696e20746865205260008201527f65616c20457374617465206d61726b6574210000000000000000000000000000602082015250565b6000613b87603283612a62565b9150613b9282613b2b565b604082019050919050565b60006020820190508181036000830152613bb681613b7a565b9050919050565b7f4e6f7420616c6c2070726f706572746965732068617665206265656e20736f6c60008201527f6420796574210000000000000000000000000000000000000000000000000000602082015250565b6000613c19602683612a62565b9150613c2482613bbd565b604082019050919050565b60006020820190508181036000830152613c4881613c0c565b9050919050565b7f4552433732313a206f70657261746f7220717565727920666f72206e6f6e657860008201527f697374656e7420746f6b656e0000000000000000000000000000000000000000602082015250565b6000613cab602c83612a62565b9150613cb682613c4f565b604082019050919050565b60006020820190508181036000830152613cda81613c9e565b9050919050565b7f4552433732313a207472616e73666572206f6620746f6b656e2074686174206960008201527f73206e6f74206f776e0000000000000000000000000000000000000000000000602082015250565b6000613d3d602983612a62565b9150613d4882613ce1565b604082019050919050565b60006020820190508181036000830152613d6c81613d30565b9050919050565b7f4552433732313a207472616e7366657220746f20746865207a65726f2061646460008201527f7265737300000000000000000000000000000000000000000000000000000000602082015250565b6000613dcf602483612a62565b9150613dda82613d73565b604082019050919050565b60006020820190508181036000830152613dfe81613dc2565b9050919050565b6000613e10826129ca565b9150613e1b836129ca565b9250827fffffffffffffffffffffffffffffffffffffffffffffffffffffffffffffffff03821115613e5057613e4f6131ce565b5b828201905092915050565b7f5061757361626c653a206e6f7420706175736564000000000000000000000000600082015250565b6000613e91601483612a62565b9150613e9c82613e5b565b602082019050919050565b60006020820190508181036000830152613ec081613e84565b9050919050565b7f4552433732313a207472616e7366657220746f206e6f6e20455243373231526560008201527f63656976657220696d706c656d656e7465720000000000000000000000000000602082015250565b6000613f23603283612a62565b9150613f2e82613ec7565b604082019050919050565b60006020820190508181036000830152613f5281613f16565b9050919050565b7f45524337323155524953746f726167653a2055524920736574206f66206e6f6e60008201527f6578697374656e7420746f6b656e000000000000000000000000000000000000602082015250565b6000613fb5602e83612a62565b9150613fc082613f59565b604082019050919050565b60006020820190508181036000830152613fe481613fa8565b9050919050565b7f4552433732314d657461646174613a2055524920717565727920666f72206e6f60008201527f6e6578697374656e7420746f6b656e0000000000000000000000000000000000602082015250565b6000614047602f83612a62565b915061405282613feb565b604082019050919050565b600060208201905081810360008301526140768161403a565b9050919050565b600081519050919050565b600082825260208201905092915050565b60006140a48261407d565b6140ae8185614088565b93506140be818560208601612a73565b6140c781612aa6565b840191505092915050565b60006080820190506140e76000830187612b44565b6140f46020830186612b44565b6141016040830185612a2d565b81810360608301526141138184614099565b905095945050505050565b60008151905061412d8161293b565b92915050565b60006020828403121561414957614148612905565b5b60006141578482850161411e565b91505092915050565b7f4e487b7100000000000000000000000000000000000000000000000000000000600052601260045260246000fd5b600061419a826129ca565b91506141a5836129ca565b9250826141b5576141b4614160565b5b828204905092915050565b60006141cb826129ca565b91506141d6836129ca565b9250826141e6576141e5614160565b5b828206905092915050565b7f4552433732313a206d696e7420746f20746865207a65726f2061646472657373600082015250565b6000614227602083612a62565b9150614232826141f1565b602082019050919050565b600060208201905081810360008301526142568161421a565b9050919050565b7f4552433732313a20746f6b656e20616c7265616479206d696e74656400000000600082015250565b6000614293601c83612a62565b915061429e8261425d565b602082019050919050565b600060208201905081810360008301526142c281614286565b905091905056fea264697066735822122001b9627f85581e6283aa0a28e648b18e80815bc7f8c35146e2f780b5f655cedd64736f6c63430008090033",
  "immutableReferences": {},
  "source": "//SPDX-License-Identifier:MIT\r\npragma solidity ^0.8.9;\r\n\r\nimport \"@openzeppelin/contracts/token/ERC721/extensions/ERC721URIStorage.sol\";\r\nimport \"@openzeppelin/contracts/utils/Counters.sol\";\r\nimport \"@openzeppelin/contracts/security/Pausable.sol\";\r\n\r\ncontract RealEstate is ERC721URIStorage, Pausable {\r\n    using Counters for Counters.Counter;\r\n    Counters.Counter private tokenId;\r\n\r\n    address private manager;\r\n    uint256 private check;\r\n\r\n    struct PropertyNFT {\r\n        uint256 nftID;\r\n        string nftURI;\r\n        address nftCreater;\r\n        address nftOwner;\r\n        uint256 nftPrice;\r\n        bool nftStatus;\r\n    }\r\n\r\n    PropertyNFT[] properties;\r\n\r\n    constructor() ERC721(\"Real Estate\", \"RLST\") {\r\n        manager = msg.sender;\r\n    }\r\n\r\n    function getManager() external view returns(address){\r\n        return manager;\r\n    }\r\n\r\n    modifier OnlyManager() {\r\n        require(\r\n            msg.sender == manager,\r\n            \"Only the manager can call this function!\"\r\n        );\r\n        _;\r\n    }\r\n\r\n    function sellNFT(string memory tokenURI, uint256 price)\r\n        external\r\n        whenNotPaused\r\n    {\r\n        require(msg.sender != manager, \"Manager cannot sell!\");\r\n        tokenId.increment();\r\n        uint256 newTokenId = tokenId.current();\r\n        _safeMint(msg.sender, newTokenId);\r\n        _setTokenURI(newTokenId, tokenURI);\r\n        properties.push(\r\n            PropertyNFT(\r\n                newTokenId,\r\n                tokenURI,\r\n                msg.sender,\r\n                msg.sender,\r\n                price,\r\n                false\r\n            )\r\n        );\r\n    }\r\n\r\n    function indexof(uint256 TokenId) public view returns(uint256){\r\n        for(uint256 i=0;i<properties.length;i++){\r\n            if(properties[i].nftID==TokenId){\r\n                 return i;\r\n            }\r\n        }\r\n        return properties.length - properties.length -1;\r\n    }\r\n\r\n    function buyNFT(uint256 TokenId) external payable whenNotPaused {\r\n        require(msg.sender != manager, \"Manager cannot buy!\");\r\n        uint256 index = indexof(TokenId);\r\n        require(index>=0, \"Token does not exist!\");\r\n        require(\r\n            msg.sender != properties[index].nftOwner,\r\n            \"You are the owner of this NFT!\"\r\n        );\r\n        require(\r\n            properties[index].nftStatus == false,\r\n            \"This NFT has been sold already!\"\r\n        );\r\n        require(\r\n            msg.value >= properties[index].nftPrice,\r\n            \"Insufficient funds!\"\r\n        );\r\n        payable(msg.sender).transfer(\r\n            msg.value - properties[index].nftPrice\r\n        );\r\n        address owner = ownerOf(TokenId);\r\n        payable(owner).transfer(properties[index].nftPrice);\r\n        _transfer(owner, msg.sender, TokenId);\r\n        PropertyNFT storage object = properties[index];\r\n        object.nftOwner = msg.sender;\r\n        object.nftStatus = true;\r\n        check++;\r\n    }\r\n\r\n    function getNFTS() external view returns (PropertyNFT[] memory) {\r\n        return properties;\r\n    }\r\n\r\n    function reset() external OnlyManager{\r\n        require(properties.length>0,\"There are no properties in the Real Estate market!\");\r\n        require(check==properties.length,\"Not all properties have been sold yet!\");\r\n            delete properties;\r\n            check=0;\r\n    }\r\n\r\n    function pause() external OnlyManager {\r\n        _pause();\r\n    }\r\n\r\n    function unpause() external OnlyManager {\r\n        _unpause();\r\n    }\r\n}\r\n\r\n//\"Naman\",45000000000000000000\r\n//\"Madhur\",50000000000000000000\r\n//\"Neha\",70000000000000000000\r\n",
  "sourcePath": "C:\\Blockcahin\\RealEstateProject\\contracts\\RealEstate.sol",
  "compiler": {
    "name": "solc",
    "version": "0.8.9+commit.e5eed63a.Emscripten.clang"
  },
  "schemaVersion": "3.4.11",
  "updatedAt": "2023-09-06T01:56:35.651Z",
  "networkType": "ethereum",
  "devdoc": {
    "kind": "dev",
    "methods": {
      "approve(address,uint256)": {
        "details": "See {IERC721-approve}."
      },
      "balanceOf(address)": {
        "details": "See {IERC721-balanceOf}."
      },
      "getApproved(uint256)": {
        "details": "See {IERC721-getApproved}."
      },
      "isApprovedForAll(address,address)": {
        "details": "See {IERC721-isApprovedForAll}."
      },
      "name()": {
        "details": "See {IERC721Metadata-name}."
      },
      "ownerOf(uint256)": {
        "details": "See {IERC721-ownerOf}."
      },
      "paused()": {
        "details": "Returns true if the contract is paused, and false otherwise."
      },
      "safeTransferFrom(address,address,uint256)": {
        "details": "See {IERC721-safeTransferFrom}."
      },
      "safeTransferFrom(address,address,uint256,bytes)": {
        "details": "See {IERC721-safeTransferFrom}."
      },
      "setApprovalForAll(address,bool)": {
        "details": "See {IERC721-setApprovalForAll}."
      },
      "supportsInterface(bytes4)": {
        "details": "See {IERC165-supportsInterface}."
      },
      "symbol()": {
        "details": "See {IERC721Metadata-symbol}."
      },
      "tokenURI(uint256)": {
        "details": "See {IERC721Metadata-tokenURI}."
      },
      "transferFrom(address,address,uint256)": {
        "details": "See {IERC721-transferFrom}."
      }
    },
    "version": 1
  },
  "userdoc": {
    "kind": "user",
    "methods": {},
    "version": 1
  }
}